:100000000C945B000C9483000C9483000C9483008C
:100010000C9483000C9483000C9483000C94830054
:100020000C9483000C9483000C9483000C94830044
:100030000C9483000C9483000C9483000C94830034
:100040000C94E5000C9483000C94F1020C94830052
:100050000C9483000C9483000C9483000C94830014
:100060000C9483000C948300000024272A000025B0
:10007000282B000023262904040404040404040299
:100080000202020202030303030303010204081035
:100090002040800102040810200102040810200002
:1000A0000000070002010000030406000000000039
:1000B00000000000CC0011241FBECFEFD4E0DEBF53
:1000C000CDBF11E0A0E0B1E0E4E3F7E002C00590AD
:1000D0000D92A830B107D9F711E0A8E0B1E001C056
:1000E0001D92A639B107E1F710E0C6EBD0E004C0DD
:1000F0002297FE010E949403C43BD107C9F70E94D6
:10010000C5000C9498030C9400008091000190911C
:100110000101019729F4109201011092000106C01B
:1001200081E090E0909301018093000160910001D3
:100130008DE00E94E00108950E948500089588E006
:1001400091E00E94DD00882339F4089588E091E071
:100150000E94DA000E94850088E091E00E94DD00A4
:100160008823A1F7089540E855E260E070E088E058
:1001700091E00E94E00061E08DE00E94C201609188
:1001800000018DE00E94E00108950E9488010E9414
:10019000B3000E949F00FDCF86E091E0909309019B
:1001A000809308010895862F0E94B00208950E944E
:1001B000E80208950E94C90208950E94B8020895B5
:1001C000CB01BA010E94770208951F920F920FB6D9
:1001D0000F9211242F938F939F93AF93BF9380918E
:1001E0000A0190910B01A0910C01B0910D0180507A
:1001F000904CAF4FBF4F80930A0190930B01A09397
:100200000C01B0930D0127C080910A0190910B0160
:10021000A0910C01B0910D0180589E43A040B040C8
:1002200080930A0190930B01A0930C01B0930D01F0
:1002300080910E0190910F01A0911001B0911101D8
:100240000196A11DB11D80930E0190930F01A09303
:100250001001B093110180910A0190910B01A091BE
:100260000C01B0910D0181589E43A040B04060F652
:10027000BF91AF919F918F912F910F900FBE0F90D3
:100280001F9018958FB7F89420910E0130910F01AF
:1002900040911001509111018FBFB901CA01089519
:1002A000EF92FF920F931F937B018C018FB7F8940D
:1002B00040910E0150910F01609110017091110158
:1002C0008FBF2FB7F89480910E0190910F01A091EC
:1002D0001001B09111012FBF841B950BA60BB70B1A
:1002E0008E159F05A007B10760F31F910F91FF9036
:1002F000EF900895019759F0FC01EE0FFF1FEE0FEC
:10030000FF1F32978FB7F8943197F1F78FBF089599
:10031000789484B5826084BD84B5816084BD85B5E0
:10032000826085BD85B5816085BDEEE6F0E08081A7
:1003300081608083E1E8F0E0808182608083808159
:1003400081608083E0E8F0E0808181608083E1EB80
:10035000F0E0808184608083E0EBF0E08081816068
:100360008083EAE7F0E0808184608083808182601E
:100370008083808181608083808180688083109207
:10038000C1000895282F30E0C90185579F4FFC0117
:10039000949129583F4FF9018491882381F0E82FE7
:1003A000F0E0E859FF4FE491F0E0662329F4808102
:1003B00090958923808308958081892B8083089577
:1003C000482F50E0CA0181569F4FFC012491CA0179
:1003D00085579F4FFC01949149585F4FFA01349122
:1003E0003323C1F1222331F1233021F480918000A5
:1003F0008F7705C0243031F4809180008F7D809309
:10040000800018C0213019F484B58F7704C02230E1
:1004100021F484B58F7D84BD0DC0263021F48091F8
:10042000B0008F7705C0273029F48091B0008F7D10
:100430008093B000E32FF0E0E359FF4FE491F0E048
:10044000662329F480819095892380830895808193
:10045000892B80830895482F50E0CA0181569F4F11
:10046000FC012491CA0185579F4FFC019491495882
:100470005F4FFA013491332319F420E030E035C0A6
:10048000222331F1233021F4809180008F7705C041
:10049000243031F4809180008F7D8093800018C0DB
:1004A000213019F484B58F7704C0223021F484B54B
:1004B0008F7D84BD0DC0263021F48091B0008F77F0
:1004C00005C0273029F48091B0008F7D8093B00063
:1004D000E32FF0E0EE58FF4FE491F0E0808120E060
:1004E00030E0892311F021E030E0C9010895EF9256
:1004F000FF920F931F937B018C0122E030E040E0DC
:1005000050E00E944103205C3D4B404F5F4FCA01C9
:10051000B901A80197010E944103C901DA010197BD
:10052000A109B109292F3A2F4B2F552747FD5A957D
:100530000196A11DB11D2093C50081508093C40078
:10054000E1ECF0E08081806180838081886080833D
:100550008081806880831F910F91FF90EF900895B4
:10056000982F8091C00085FFFCCF9093C60008951E
:10057000809112019091130180589F4F2091140196
:1005800030911501821B930B60E870E00E942E03EE
:10059000089540911401509115018091120190919C
:1005A00013018417950719F42FEF3FEF0FC0FA01DD
:1005B000EA5EFE4F2081CA01019660E870E00E9469
:1005C0002E03909315018093140130E0C901089522
:1005D0008091140190911501909313018093120161
:1005E00008951F920F920FB60F9211242F933F93ED
:1005F0004F935F936F937F938F939F93AF93BF932B
:10060000EF93FF934091C600E0911201F091130126
:10061000CF01019660E870E00E942E039C0180915A
:100620001401909115012817390739F0EA5EFE4F41
:1006300040833093130120931201FF91EF91BF91FA
:10064000AF919F918F917F916F915F914F913F916A
:100650002F910F900FBE0F901F90189597FB092EAA
:1006600007260AD077FD04D027D006D000201AF440
:10067000709561957F4F0895F6F7909581959F4FFE
:10068000089597FB092E05260ED057FD04D028D0DB
:100690000AD0001C38F450954095309521953F4F75
:1006A0004F4F5F4F0895F6F790958095709561953F
:1006B0007F4F8F4F9F4F0895AA1BBB1B51E107C06F
:1006C000AA1FBB1FA617B70710F0A61BB70B881FE2
:1006D000991F5A95A9F780959095BC01CD01089571
:1006E000A1E21A2EAA1BBB1BFD010DC0AA1FBB1F36
:1006F000EE1FFF1FA217B307E407F50720F0A21BA8
:10070000B30BE40BF50B661F771F881F991F1A9414
:1007100069F760957095809590959B01AC01BD013E
:10072000CF010895EE0FFF1F0590F491E02D09947D
:04073000F894FFCF6B
:08073400010000000000D300E9
:00000001FF
